:020000040800F2
:10000000200E002031020008C10600087906000811
:10001000BD060008990500080F0C0008000000004C
:100020000000000000000000000000007D08000843
:100030009D05000800000000510700089509000810
:100040004B0200084B0200084B0200084B0200085C
:100050004B0200084B0200084B0200084B0200084C
:100060004B0200084B0200084B0200084B0200083C
:100070004B0200084B0200084B0200084B0200082C
:100080004B0200084B0200084B0200084B0200081C
:100090004B0200084B0200084B0200084B0200080C
:1000A0004B0200084B0200084B0200084B020008FC
:1000B0004B0200084B0200084B0200084B020008EC
:1000C0004B0200084B0200084B0200084B020008DC
:1000D0004B020008010A00084B0200084B0200080E
:1000E0004B0200084B0200084B0200084B020008BC
:1000F0004B0200084B0200084B0200084B020008AC
:100100004B0200084B0200084B0200084B0200089B
:100110004B0200084B0200084B0200084B0200088B
:100120004B0200084B0200084B0200084B0200087B
:100130004B0200084B0200084B0200084B0200086B
:100140004B0200084B0200084B0200084B0200085B
:100150004B0200084B0200084B0200084B0200084B
:100160004B0200084B0200084B0200084B0200083B
:100170004B0200084B0200084B0200084B0200082B
:100180004B0200084B02000800F002F800F041F8B2
:100190000AA090E8000C82448344AAF10107DA45E2
:1001A00001D100F036F8AFF2090EBAE80F0013F0F3
:1001B000010F18BFFB1A43F0010318479C150000FC
:1001C000BC150000103A24BF78C878C1FAD852078D
:1001D00024BF30C830C144BF04680C6070470000C1
:1001E0000023002400250026103A28BF78C1FBD840
:1001F000520728BF30C148BF0B607047642900F028
:100200007980002070471FB501F0FAF91FBD10B5C5
:1002100010BD00F08FF91146FFF7F5FF00F062FE08
:1002200000F0ADF903B4FFF7F2FF03BC00F067FD87
:100230000948804709480047FEE7FEE7FEE7FEE77A
:10024000FEE7FEE7FEE7FEE7FEE7FEE704480549B6
:10025000054A064B7047000099090008890100080B
:1002600020080020200E0020200A0020200A002064
:10027000704700000FB4044910B503AA029800F0BB
:100280002BF910BC5DF814FB080000202DE9F041AB
:100290000E460446002020622046E168884730B3BD
:1002A000252805D0D4E901219047206A401CF2E7B7
:1002B000E168204600278847050018D0A5F14100D5
:1002C000192802D820354FF40067324629462046C7
:1002D0002760FFF793FF40B1012804D0F61D26F0F8
:1002E00007060836D8E7361DD6E72846DAE7206A3B
:1002F000BDE8F0812DE9F04106460024106875291B
:10030000314616A510D0AFF30080002802DA404233
:1003100013A507E031688A0701D512A502E0490755
:1003200004D511A5012401E0AFF3008000210A22C9
:1003300006F1240709E0B0FBF2FCB0FBF2F302FB8C
:100340001C00303078541846491C0028F3D123464D
:100350002A463046BDE8F04100F065B800000000D4
:100360002D0000002B0000002000000010B5203AF6
:10037000C0F00B80B1E81850203AA0E81850B1E85E
:100380001850A0E81850BFF4F5AF5FEA027C24BF14
:10039000B1E81850A0E8185044BF18C918C0BDE80B
:1003A00010405FEA827C24BF51F8043B40F8043BD4
:1003B00008BF7047D20728BF31F8023B48BF11F889
:1003C000012B28BF20F8023B48BF00F8012B7047E3
:1003D0004FF0000200B5134694469646203922BFDE
:1003E000A0E80C50A0E80C50B1F12001BFF4F7AF29
:1003F000090728BFA0E80C5048BF0CC05DF804EB0B
:10040000890028BF40F8042B08BF704748BF20F878
:10041000022B11F0804F18BF00F8012B7047704776
:100420007047704770472DE9F0470D469946924650
:10043000044600F124080168880604D5E06921F02B
:100440001001216000E00120A84201DD471B00E00F
:100450000027A1697A1902EB0900081AA061207827
:10046000C00602D42046AFF30080002608E0D4E99D
:1004700001211AF806009047206A401C761C206271
:100480004E45F4DB2078C0060AD52046AFF3008045
:1004900006E0D4E9012130209047206A401C206208
:1004A000381EA7F10107F4DC07E0D4E9012118F8B0
:1004B00005009047206A401C2062281EA5F1010516
:1004C000F3DC2046AFF300802078000602D502203E
:1004D000BDE8F0870120FBE7074B70B50D467B4474
:1004E00000F011F80446284600F020F810B14FF053
:1004F000FF3070BD204670BD3F09000001694A1CF5
:1005000002610878704700B58FB0CDE90131002154
:10051000059105497944CDE9031011466846FFF776
:10052000B5FE0FB000BD0000E5FFFFFF007B00F04F
:1005300080007047754600F02BF8AE46050069460E
:10054000534620F00700854618B020B5FFF77EFE21
:10055000BDE820404FF000064FF000074FF00008C4
:100560004FF0000B21F00701AC46ACE8C009ACE845
:10057000C009ACE8C009ACE8C0098D46704710B5A9
:100580000446AFF300802046BDE81040FFF74ABEA6
:1005900000487047C007002000BFFEE77047F0B575
:1005A0000A4600210023002400BF3DE0012505FA92
:1005B00001F3156805EA03049C4234D105684F0035
:1005C0000326BE40B543056015794E00B540066868
:1005D000354305601579012D02D01579022D16D10C
:1005E00085684F000326BE40B543856055794E00AF
:1005F000B540866835438560456801268E40B54321
:100600004560456896798E40B6B235434560C56809
:100610004F000326BE40B543C560D5794E00B540B6
:10062000C6683543C560491C1029BFD3F0BDF0B57D
:10063000002300244D07ED0E02FA05F3CE1000F161
:10064000200555F826504E07F70E0F26BE40B5433D
:10065000CF1000F1200646F82750CE1000F12005FB
:1006600055F8265045EA0304CE1000F1200545F860
:100670002640F0BD0183704700BFFEE71CB5012195
:10068000202000F067F84FF4C060009001208DF842
:10069000040000208DF8060003208DF805000120DD
:1006A0008DF8070069460448FFF779FF4FF4C061F1
:1006B0000148FFF7DFFF1CBD0014024000BFFEE74A
:1006C0007047000070B5002100230F22C4781CB3CE
:1006D000174C246804F4E064C4F5E064C4F3072113
:1006E000C1F10404E3B20A4144789C40E1B2847849
:1006F000144021430C07210E0E4C057861550478F7
:1007000004F01F050124AC4005786D11AD0005F122
:10071000E025C5F8004109E0047804F01F05012434
:10072000AC40054D0678761145F8264070BD0000B6
:100730000CED00E000E400E080E100E0024901434C
:10074000024A1160704700000000FA050CED00E05D
:100750007047000029B1064A12680243044B1A6030
:1007600004E0034A12688243014B1A60704700009C
:100770003038024029B1064A12680243044B1A601D
:1007800004E0034A12688243014B1A60704700007C
:1007900044380240F0B50021002200240225002642
:1007A0000223324F3F6807F00C0121B1042905D024
:1007B000082937D105E02E4F076036E02D4F07603E
:1007C00033E02A4F3F1F3F68C7F38056274F3F1F34
:1007D0003F6807F03F036EB1264FB7FBF3F7DFF832
:1007E0008CC0ACF1040CDCF800C0CCF3881C07FB17
:1007F0000CF40CE01E4FB7FBF3F7DFF870C0ACF160
:10080000040CDCF800C0CCF3881C07FB0CF4174F79
:100810003F1F3F68C7F301477F1C7D00B4FBF5F71E
:10082000076002E0124F076000BF00BF0F4F3F6834
:1008300007F0F0010909104F7A5C0768D74047605C
:100840000A4F3F6807F4E051890A0B4F7A5C47680A
:10085000D7408760054F3F6807F46041490B064F5A
:100860007A5C4768D740C760F0BD00000838024096
:100870000024F40000127A000E00002070470000EF
:100880000CB50020019000903448006840F480309E
:100890003249086000BF3148006800F40030009021
:1008A0000198401C0190009818B90198B0F5A04F2C
:1008B000F1D12A48006800F4003010B10120009006
:1008C00001E0002000900098012846D123484030E4
:1008D000006840F08050214940310860204800689D
:1008E00040F440401E4908601C48083000681B491D
:1008F000083108600846006840F400400860084677
:10090000006840F4A05008601648091F0860081FDE
:10091000006840F08070091F086000BF0F48006841
:1009200000F000700028F9D040F205700E49086010
:100930000A480830006820F00300084908310860C0
:100940000846006840F00200086000BF0348083015
:10095000006800F00C000828F8D10CBD00380240F7
:100960000070004008544007003C0240042808D1B1
:100970004FF0E021096941F004014FF0E0221161DC
:1009800007E04FF0E021096921F004014FF0E02277
:10099000116170477047000010B51548006840F4B9
:1009A0007000134908601348006840F001001149C5
:1009B000086000200F49083108600E4800680E49A1
:1009C00008400C4908600D48091D0860081F0068B0
:1009D00020F48020091F0860002006490C310860BF
:1009E000FFF74EFF4FF0006001498039086010BDED
:1009F00088ED00E000380240FFFFF6FE10300024D2
:100A000008B540F22551174800F03EF848B11548A6
:100A100000F0F4F8C0B200909DF80010124800F009
:100A2000E8F940F227710F4800F02EF8C0B169468E
:100A30000E4800F0B7F928B19DF80010094800F001
:100A4000E2F803E05521074800F0DDF8074800F020
:100A5000BFF928B9002240F22771024800F03EF8A1
:100A600008BD0000001001402400002030000020DC
:100A700021B1828942F40052828104E082894DF6DC
:100A8000FF731A408281704770B50246002400232C
:100A90000025002040F66A16B14200D100BFC1F324
:100AA000421501F01F03012606FA03F3012D02D1BE
:100AB0009689334006E0022D02D1168A334001E0C8
:100AC000968A33400C12012606FA04F41688344044
:100AD00013B10CB1012000E0002070BDF0B5034659
:100AE000002400260025002040F66A17B94200D1F4
:100AF00000BF1846C1F3421401F01F06012707FA90
:100B000006F5012C01D10C3004E0022C01D110308B
:100B100000E014301AB107682F43076002E007684D
:100B2000AF430760F0BD00002DE9FF4705460E46C4
:100B30000024A14600BFA046B08900B100BF2C8AA6
:100B400024F44054F08804432C82AC8941F20C60B8
:100B50008443B08831890843718908430443AC81D8
:100B6000AC8A24F44074B0890443AC826846FFF731
:100B700011FE2048854202D01F48854202D1DDF88F
:100B80000C9001E0DDF80890A88900F4004040B125
:100B900009EBC90000EB091031684900B0FBF1F71F
:100BA00007E009EBC90000EB091031688900B0FBD0
:100BB000F1F76420B7FBF0F004012009642101FB88
:100BC0001078A88900F4004040B1322000EBC80042
:100BD000B0FBF1F000F00700044308E0322000EB26
:100BE00008106421B0FBF1F000F00F0004432C81E9
:100BF000BDE8FF87001001400014014001468888CD
:100C0000C0F308007047C1F308028280704700BF3C
:100C1000FEE700002DE9FF4F85B088461446129D7F
:100C2000059800F06FFA0646FE208DF808008DF852
:100C30000950B0798DF80A002B4800788DF80B0028
:100C4000294840788DF80C008DF80D80B079401C53
:100C5000B0710DF109074FF0050900BF4FF6FF70A5
:100C6000009000BF04E017F8010B694600F049F856
:100C7000B9F10000A9F101011FFA81F9F3D1BDF822
:100C80000000049004AFA146AA46CB4604E01BF83E
:100C9000010B394600F035F8BAF10000AAF1010164
:100CA0001FFA81FAF3D100BF04A9139800F029F8C4
:100CB000BDF81000C0B28DF80400BDF8100000129D
:100CC0008DF80500062202A9059800F00FF82A46C3
:100CD0002146059800F00AF8022201A9059800F0C3
:100CE00005F809B0BDE8F08F0000002070B5064699
:100CF0000C4615462946204600F0DAFB70BD00BFC1
:100D0000704702460B7883EA020080EA0013D8B2EB
:100D10000B881B1283EA002383EAC00383EA2013B3
:100D20000B80704710B504466FF00400FFF71EFEFD
:100D3000E11704EB5171C1F3C701074A1170104666
:100D4000007800EB4001C1EBC0104FF6FF7101EAE3
:100D5000C0000249088010BD0200002004000020ED
:100D60000146CA880B899A4206DB8A88CB88D21A48
:100D70000B891A4490B203E00A89CB88D21A90B248
:100D8000704730B50B46036082800024C480048124
:100D9000002104E0002405686C544C1CA1B291426F
:100DA000F8DB30BD02461089D388984201D100207B
:100DB000704713891068C05C08701089401C80B2AD
:100DC00010819388984201DB002010810120EFE719
:100DD0000146CA880B899A4204DBCA880B89D21A59
:100DE00090B205E08A880B89D21ACB881A4490B257
:100DF000704710B502460B46D188481C80B20146A8
:100E00009488A04200DB00211089884201D1002093
:100E100010BDD48810680355D1800120F8E7000088
:100E200000BF054A128802F04002002AF9D0C2B27F
:100E3000014B9A8070470000001001402DE9F041FD
:100E40000446E07920B11E2817D021283FD129E09F
:100E50002546214EE878092801DAE87800E00920E3
:100E6000074609213046FFF7B3FA3A4605F1080173
:100E70003046FFF77BFA00BF2AE02546174EE87898
:100E80001C2801DAE87800E01C2007461C213046C7
:100E9000FFF79EFA3A4605F108013046FFF766FA79
:100EA00000BF15E025460E4EE8781C2801DAE878E8
:100EB00000E01C2007461C213046FFF789FA3A461D
:100EC00005F108013046FFF751FA00BF00E000BF0E
:100ED00000BFBDE8F0810000400200204C0200206D
:100EE000680200204FF4A060FFF728FCA820FFF75D
:100EF00019FF4FF4E13000F0FDFAFFF7BFFBFF22CE
:100F00000E490F48FFF73DFFFF220E490E48FFF73D
:100F100038FF00200D49087048700DE0002211468E
:100F2000104600F035F900220221104600F030F999
:100F300001E000F035FBFCE7F0E700003C0000209A
:100F4000300000203B010020240000200000002091
:100F50002DE9F04705460C4616469846089F4FF087
:100F6000000900202070E0780B2812D2DFE800F0A2
:100F7000060712312939414E5F72730000BFFE2E01
:100F800007D10220E0700020E870AE70284600F023
:100F900055F97AE0207850B16078401C6070A078F4
:100FA000401CA070002020700120E07008E0EE706E
:100FB000002020713146284600F081F90420E070BD
:100FC00063E02E713146284600F079F90320E07085
:100FD0005BE06E713146284600F071F90520E07043
:100FE00053E0AE713146284600F069F90620E07002
:100FF0004BE0EE713146284600F061F9E87810B90F
:101000000820E07001E00720E0703EE02179481CF4
:10101000207105F1080046543146284600F04FF98A
:101020002079E978884201D10820E0702DE0E87944
:101030002E4A115C284600F042F92878B04202D0CE
:101040000A20E07001E00920E070217905F1080034
:1010500046541AE000BFE0780A2803D02888B6EB8F
:10106000202F02D00220207001E0012020700120FA
:10107000E0702079401C05F108010E544FF488728D
:1010800029464046FFF772F900BF00BF09F1010988
:101090002078012808D128796071208908B90020BA
:1010A00060812089401C2081E87888F80300E0787E
:1010B000F870207938716079401C78712089388106
:1010C000A07878810020A070207802280BD12179A7
:1010D00005F10800425C481C05F10801085C42EA81
:1010E0000020A8F800002078BDE8F0870A16000864
:1010F000014601EB0110024A02EB001070470000AC
:1011000080030020014601EB4100024A02EB80000F
:10111000704700004E0300202DE9F84F07460C46AB
:1011200016461D4600BF3846FFF7ECFF814638469D
:10113000FFF7DEFF82463346224649460095FFF719
:1011400007FF8046B8F1020F20D13846FFF7D0FFE5
:1011500082463846FFF7D6FF814699F80200401CC8
:1011600089F80200002089F80000012089F80300B6
:10117000FE2C08D1022089F8030000208AF8030021
:10118000504600F05BF80020BDE8F88F4046FBE7D2
:101190002DE9F04780460E46914608EBC80000EB6B
:1011A00008102549441812E0E07D215C4A4640467B
:1011B00000F04AF800B90DE0E07D401CE075E07DEC
:1011C000172801D10020E075207E401E2076207E69
:1011D0000028E9D100BF172E01D1BDE8F087002714
:1011E000E57D0AE0605DB04200D1F6E7681CC5B25B
:1011F000172D00D10025781CC7B2207EB842F1DC43
:10120000207E28B94A463146404600F01DF880B994
:10121000207E172800D1E0E7E07D217E0844C5B29A
:10122000172D02DBA5F11700C5B26655207E401CC4
:10123000207600BFD1E700001B03002000BF4FF65F
:10124000FF71018000BF70472DE9F04106460D4651
:10125000174600F01BF904B2304600F047F910B110
:101260000020BDE8F08135B1012D0CD0022D12D047
:10127000122D20D117E0092C01DA0020F1E73046C9
:1012800000F086F818E01C2C01DA0020E9E730466F
:1012900000F01EF810E01C2C01DA0020E1E73046D7
:1012A00000F0B8F808E0332C01DA0020D9E7304626
:1012B00000F0E2F800E000BF00BF0120D1E770B508
:1012C00004460D4621462846FFF71BFD70BD000071
:1012D00030B52DED068B89B004462C484078401C73
:1012E000C5B22A4845708078401CC0B22749887032
:1012F00000EE100AB8EE408A0846C078401CC0B222
:10130000C87000EE100AB8EE40AA08460079401CEA
:10131000C0B2087100EE100AF8EE40AA0846407903
:10132000401CC0B2487100EE100AF8EE408A084630
:101330008079401CC0B2887100EE100AB8EE409A65
:101340000846C079401CC0B2C87100EE100AF8EE21
:10135000409A02958DED038A8DED04AACDED05AA84
:10136000CDED068A8DED079ACDED089A27201C2138
:101370000B4602AACDE900101E212046FFF74AFCC9
:1013800000BF09B0BDEC068B30BD00008402002018
:101390002DE9F04786B00546012404261C4890F943
:1013A0000070102490F90000C01E05280BD2DFE861
:1013B00000F003060504070000BF00BF00BF00BF28
:1013C00044F0080400BF00BF44F0400444F00104AE
:1013D0004FF002084FF00309A24603978DF81080E2
:1013E0008DF811908DF812A08DF8136003208DF800
:1013F0001400322009210B4603AACDE90010002178
:101400002846FFF707FC00BF06B0BDE8F0870000E4
:101410001E0000202DE9F04F8BB004460125022666
:1014200003274FF004084FF005094FF0060A4FF06C
:10143000070B0820099009200A900295039604974B
:10144000CDF81480CDF81890ADF81CA0ADF81EB002
:101450000998ADF820000A98ADF8220068201C21F8
:101460000B4602AACDE9001021212046FFF7D2FB4E
:1014700000BF0BB0BDE8F08F7047000000B5024818
:10148000FFF7A6FC00BD00002400002000B50248C4
:10149000FFF766FC00BD00003000002008B569467B
:1014A0000248FFF77FFC9DF8000008BD24000020E3
:1014B00070B506460C460CB9002070BD002507E04B
:1014C000715D0848FFF795FC601E84B2681C85B208
:1014D000002CF5DC012240F227710348FFF7FEFAE9
:1014E0000120EAE730000020001001400146002002
:1014F0007047000010B588B0044601210846FFF788
:1015000029F901211020FFF735F907220921224886
:10151000FFF78DF807220A211F48FFF788F84FF4DC
:10152000C060069002208DF81C008DF81D00002080
:101530008DF81E0001208DF81F0006A91648FFF740
:101540002EF802940020ADF80C00ADF80E00ADF8B6
:101550001000ADF814000C20ADF8120002A90F48DD
:10156000FFF7E2FA01210D48FFF782FA012240F26B
:1015700025510A48FFF7B2FA25208DF80400032010
:101580008DF805008DF8060001208DF8070001A8F0
:10159000FFF798F808B010BD0000024000100140AD
:1015A00010B5C8B00020ADF80E001DE0FFF776FFC3
:1015B000044601AB04AA21460E480078FFF7ACFDB3
:1015C00088B101200C4908709DF8150000909DF825
:1015D00016309DF814209DF817100848FEF74AFEB3
:1015E00004A8FFF72BFC00BFFFF748FF0028DDD160
:1015F00048B010BD1F000020200000200C1700087C
:101600004FF04070E1EE100A7047327C8900EDD94E
:101610006877000000590000000000000000D69F1D
:10162000DCA81817AA90437327F6B968EDF4DED446
:1016300009FEE61C1C84DDE80B9929274EC4000036
:101640000F030000000000A7B777BF76941500F3E2
:101650007C000026149E988F0000006A31168F8C43
:10166000059600E7B73F362F000000000000AF6688
:101670009ED0385D8A6C20B95422AE7CED044C803B
:10168000387486EDCBFA57CBDC19E22E1DDF5506F8
:10169000E5CB01C36DA8B52F48837F00679AB2C818
:1016A000000000000000000000000000000000003A
:1016B000000000000000000000000000000000002A
:1016C000000000000000000000000000000000001A
:1016D000000000000000000000000000000000000A
:1016E00000000000000000000000000000000000FA
:1016F000A3699723960000000000005A68555F8296
:10170000B85108CC31AA2C532E00000052656365F5
:1017100069766564206D65737361676520776974A8
:10172000682049442025642C2073657175656E63BB
:10173000653A2025642066726F6D20636F6D706F4F
:101740006E656E74202564206F66207379737465EE
:101750006D202564000000007817000800000020BC
:1017600024000000C40100089C1700082400002089
:10177000FC0D0000E0010008000000000000000077
:10178000000000000000000000000102030401024C
:0C17900003040607080900000000000028
:040000050800018965
:00000001FF
